{
  "contractName": "Gamble",
  "abi": [
    {
      "constant": true,
      "inputs": [
        {
          "name": "",
          "type": "address"
        }
      ],
      "name": "player_ETH",
      "outputs": [
        {
          "name": "",
          "type": "uint256"
        }
      ],
      "payable": false,
      "stateMutability": "view",
      "type": "function"
    },
    {
      "constant": false,
      "inputs": [],
      "name": "renounceOwnership",
      "outputs": [],
      "payable": false,
      "stateMutability": "nonpayable",
      "type": "function"
    },
    {
      "constant": true,
      "inputs": [],
      "name": "returnRate",
      "outputs": [
        {
          "name": "",
          "type": "uint256"
        }
      ],
      "payable": false,
      "stateMutability": "view",
      "type": "function"
    },
    {
      "constant": false,
      "inputs": [],
      "name": "owner",
      "outputs": [
        {
          "name": "",
          "type": "address"
        }
      ],
      "payable": false,
      "stateMutability": "nonpayable",
      "type": "function"
    },
    {
      "constant": false,
      "inputs": [],
      "name": "isOwner",
      "outputs": [
        {
          "name": "",
          "type": "bool"
        }
      ],
      "payable": false,
      "stateMutability": "nonpayable",
      "type": "function"
    },
    {
      "constant": true,
      "inputs": [],
      "name": "firstPlacePlayer",
      "outputs": [
        {
          "name": "",
          "type": "address"
        }
      ],
      "payable": false,
      "stateMutability": "view",
      "type": "function"
    },
    {
      "constant": false,
      "inputs": [
        {
          "name": "newOwner",
          "type": "address"
        }
      ],
      "name": "transferOwnership",
      "outputs": [],
      "payable": false,
      "stateMutability": "nonpayable",
      "type": "function"
    },
    {
      "payable": true,
      "stateMutability": "payable",
      "type": "fallback"
    },
    {
      "anonymous": false,
      "inputs": [
        {
          "indexed": false,
          "name": "fileName",
          "type": "string"
        },
        {
          "indexed": false,
          "name": "lineNumber",
          "type": "uint256"
        }
      ],
      "name": "__CoverageGamble",
      "type": "event"
    },
    {
      "anonymous": false,
      "inputs": [
        {
          "indexed": false,
          "name": "fileName",
          "type": "string"
        },
        {
          "indexed": false,
          "name": "fnId",
          "type": "uint256"
        }
      ],
      "name": "__FunctionCoverageGamble",
      "type": "event"
    },
    {
      "anonymous": false,
      "inputs": [
        {
          "indexed": false,
          "name": "fileName",
          "type": "string"
        },
        {
          "indexed": false,
          "name": "statementId",
          "type": "uint256"
        }
      ],
      "name": "__StatementCoverageGamble",
      "type": "event"
    },
    {
      "anonymous": false,
      "inputs": [
        {
          "indexed": false,
          "name": "fileName",
          "type": "string"
        },
        {
          "indexed": false,
          "name": "branchId",
          "type": "uint256"
        },
        {
          "indexed": false,
          "name": "locationIdx",
          "type": "uint256"
        }
      ],
      "name": "__BranchCoverageGamble",
      "type": "event"
    },
    {
      "anonymous": false,
      "inputs": [
        {
          "indexed": false,
          "name": "fileName",
          "type": "string"
        },
        {
          "indexed": false,
          "name": "branchId",
          "type": "uint256"
        }
      ],
      "name": "__AssertPreCoverageGamble",
      "type": "event"
    },
    {
      "anonymous": false,
      "inputs": [
        {
          "indexed": false,
          "name": "fileName",
          "type": "string"
        },
        {
          "indexed": false,
          "name": "branchId",
          "type": "uint256"
        }
      ],
      "name": "__AssertPostCoverageGamble",
      "type": "event"
    },
    {
      "anonymous": false,
      "inputs": [
        {
          "indexed": true,
          "name": "winner",
          "type": "address"
        },
        {
          "indexed": false,
          "name": "amount",
          "type": "uint256"
        }
      ],
      "name": "win",
      "type": "event"
    },
    {
      "anonymous": false,
      "inputs": [
        {
          "indexed": true,
          "name": "loster",
          "type": "address"
        },
        {
          "indexed": false,
          "name": "amount",
          "type": "uint256"
        }
      ],
      "name": "lost",
      "type": "event"
    },
    {
      "anonymous": false,
      "inputs": [
        {
          "indexed": false,
          "name": "fileName",
          "type": "string"
        },
        {
          "indexed": false,
          "name": "lineNumber",
          "type": "uint256"
        }
      ],
      "name": "__CoverageLeaderboard",
      "type": "event"
    },
    {
      "anonymous": false,
      "inputs": [
        {
          "indexed": false,
          "name": "fileName",
          "type": "string"
        },
        {
          "indexed": false,
          "name": "fnId",
          "type": "uint256"
        }
      ],
      "name": "__FunctionCoverageLeaderboard",
      "type": "event"
    },
    {
      "anonymous": false,
      "inputs": [
        {
          "indexed": false,
          "name": "fileName",
          "type": "string"
        },
        {
          "indexed": false,
          "name": "statementId",
          "type": "uint256"
        }
      ],
      "name": "__StatementCoverageLeaderboard",
      "type": "event"
    },
    {
      "anonymous": false,
      "inputs": [
        {
          "indexed": false,
          "name": "fileName",
          "type": "string"
        },
        {
          "indexed": false,
          "name": "branchId",
          "type": "uint256"
        },
        {
          "indexed": false,
          "name": "locationIdx",
          "type": "uint256"
        }
      ],
      "name": "__BranchCoverageLeaderboard",
      "type": "event"
    },
    {
      "anonymous": false,
      "inputs": [
        {
          "indexed": false,
          "name": "fileName",
          "type": "string"
        },
        {
          "indexed": false,
          "name": "branchId",
          "type": "uint256"
        }
      ],
      "name": "__AssertPreCoverageLeaderboard",
      "type": "event"
    },
    {
      "anonymous": false,
      "inputs": [
        {
          "indexed": false,
          "name": "fileName",
          "type": "string"
        },
        {
          "indexed": false,
          "name": "branchId",
          "type": "uint256"
        }
      ],
      "name": "__AssertPostCoverageLeaderboard",
      "type": "event"
    },
    {
      "anonymous": false,
      "inputs": [
        {
          "indexed": true,
          "name": "previousOwner",
          "type": "address"
        },
        {
          "indexed": true,
          "name": "newOwner",
          "type": "address"
        }
      ],
      "name": "OwnershipTransferred",
      "type": "event"
    },
    {
      "constant": false,
      "inputs": [],
      "name": "getBalance",
      "outputs": [
        {
          "name": "",
          "type": "uint256"
        }
      ],
      "payable": false,
      "stateMutability": "nonpayable",
      "type": "function"
    },
    {
      "constant": false,
      "inputs": [
        {
          "name": "_returnRate",
          "type": "uint256"
        }
      ],
      "name": "setReturnRate",
      "outputs": [],
      "payable": false,
      "stateMutability": "nonpayable",
      "type": "function"
    },
    {
      "constant": false,
      "inputs": [],
      "name": "wannaPlayAGame",
      "outputs": [],
      "payable": true,
      "stateMutability": "payable",
      "type": "function"
    },
    {
      "constant": false,
      "inputs": [
        {
          "name": "amount",
          "type": "uint256"
        }
      ],
      "name": "getETH",
      "outputs": [],
      "payable": false,
      "stateMutability": "nonpayable",
      "type": "function"
    }
  ],
  "bytecode": "0x60806040526000600360006101000a81548173ffffffffffffffffffffffffffffffffffffffff021916908373ffffffffffffffffffffffffffffffffffffffff1602179055506014600455336000806101000a81548173ffffffffffffffffffffffffffffffffffffffff021916908373ffffffffffffffffffffffffffffffffffffffff1602179055506000809054906101000a900473ffffffffffffffffffffffffffffffffffffffff1673ffffffffffffffffffffffffffffffffffffffff16600073ffffffffffffffffffffffffffffffffffffffff167f8be0079c531659141344cd1fd0a4f28419497f9722a3daafe3b4186f6b6457e060405160405180910390a36125bf806101166000396000f3fe60806040526004361061009c5760003560e01c8063715018a611610064578063715018a6146102025780637c2ffbb3146102195780638da5cb5b146102445780638f32d59b1461029b578063ca555678146102ca578063f2fde38b146103215761009c565b806312065fe0146100f25780632835b45c1461011d5780632f9999e714610158578063616329c814610193578063705f613d146101f8575b7fff5953b5cf97b9739dbff8b9ed8680c4194e2639ec6fa262ed7cbb5357d82ef4600160405180806020018381526020018281038252607681526020018061247e607691396080019250505060405180910390a1005b3480156100fe57600080fd5b50610107610372565b6040518082815260200191505060405180910390f35b34801561012957600080fd5b506101566004803603602081101561014057600080fd5b810190808035906020019092919050505061048d565b005b34801561016457600080fd5b506101916004803603602081101561017b57600080fd5b810190808035906020019092919050505061080c565b005b34801561019f57600080fd5b506101e2600480360360208110156101b657600080fd5b81019080803573ffffffffffffffffffffffffffffffffffffffff16906020019092919050505061098c565b6040518082815260200191505060405180910390f35b6102006109a4565b005b34801561020e57600080fd5b50610217611345565b005b34801561022557600080fd5b5061022e61147e565b6040518082815260200191505060405180910390f35b34801561025057600080fd5b50610259611484565b604051808273ffffffffffffffffffffffffffffffffffffffff1673ffffffffffffffffffffffffffffffffffffffff16815260200191505060405180910390f35b3480156102a757600080fd5b506102b06114ad565b604051808215151515815260200191505060405180910390f35b3480156102d657600080fd5b506102df611504565b604051808273ffffffffffffffffffffffffffffffffffffffff1673ffffffffffffffffffffffffffffffffffffffff16815260200191505060405180910390f35b34801561032d57600080fd5b506103706004803603602081101561034457600080fd5b81019080803573ffffffffffffffffffffffffffffffffffffffff16906020019092919050505061152a565b005b60007fff5953b5cf97b9739dbff8b9ed8680c4194e2639ec6fa262ed7cbb5357d82ef4600260405180806020018381526020018281038252607681526020018061247e607691396080019250505060405180910390a17f6c4f8a7ff8a81703071f681796a21a1ecbaf1c78e59a8d1755d188ccc5d9c94b600f60405180806020018381526020018281038252607681526020018061247e607691396080019250505060405180910390a17ff7ba09ba40bbc1d9113bf421e94c0b30d545bdc94cd3cf1f540e7c1905333c36600160405180806020018381526020018281038252607681526020018061247e607691396080019250505060405180910390a13073ffffffffffffffffffffffffffffffffffffffff1631905090565b6104956114ad565b610507576040517f08c379a00000000000000000000000000000000000000000000000000000000081526004018080602001828103825260208152602001807f4f776e61626c653a2063616c6c6572206973206e6f7420746865206f776e657281525060200191505060405180910390fd5b7fff5953b5cf97b9739dbff8b9ed8680c4194e2639ec6fa262ed7cbb5357d82ef4600660405180806020018381526020018281038252607681526020018061247e607691396080019250505060405180910390a17f6c4f8a7ff8a81703071f681796a21a1ecbaf1c78e59a8d1755d188ccc5d9c94b602960405180806020018381526020018281038252607681526020018061247e607691396080019250505060405180910390a17f7e5ac9d9129743c0c9341d4a95f1b6f1fb552e9299e590642368b4d83176fbe0600460405180806020018381526020018281038252607681526020018061247e607691396080019250505060405180910390a17ff7ba09ba40bbc1d9113bf421e94c0b30d545bdc94cd3cf1f540e7c1905333c36600c60405180806020018381526020018281038252607681526020018061247e607691396080019250505060405180910390a1803073ffffffffffffffffffffffffffffffffffffffff1631116106c6576040517f08c379a000000000000000000000000000000000000000000000000000000000815260040180806020018281038252602581526020018061256f6025913960400191505060405180910390fd5b7fb6c2af87bb3d9311d9b1ee71dbd20c55aa16c7dd774cfc363d9cdd4089570555600460405180806020018381526020018281038252607681526020018061247e607691396080019250505060405180910390a17f6c4f8a7ff8a81703071f681796a21a1ecbaf1c78e59a8d1755d188ccc5d9c94b602a60405180806020018381526020018281038252607681526020018061247e607691396080019250505060405180910390a17ff7ba09ba40bbc1d9113bf421e94c0b30d545bdc94cd3cf1f540e7c1905333c36600d60405180806020018381526020018281038252607681526020018061247e607691396080019250505060405180910390a13373ffffffffffffffffffffffffffffffffffffffff166108fc829081150290604051600060405180830381858888f19350505050158015610808573d6000803e3d6000fd5b5050565b6108146114ad565b610886576040517f08c379a00000000000000000000000000000000000000000000000000000000081526004018080602001828103825260208152602001807f4f776e61626c653a2063616c6c6572206973206e6f7420746865206f776e657281525060200191505060405180910390fd5b7fff5953b5cf97b9739dbff8b9ed8680c4194e2639ec6fa262ed7cbb5357d82ef4600360405180806020018381526020018281038252607681526020018061247e607691396080019250505060405180910390a17f6c4f8a7ff8a81703071f681796a21a1ecbaf1c78e59a8d1755d188ccc5d9c94b601360405180806020018381526020018281038252607681526020018061247e607691396080019250505060405180910390a17ff7ba09ba40bbc1d9113bf421e94c0b30d545bdc94cd3cf1f540e7c1905333c36600260405180806020018381526020018281038252607681526020018061247e607691396080019250505060405180910390a18060048190555050565b60026020528060005260406000206000915090505481565b7fff5953b5cf97b9739dbff8b9ed8680c4194e2639ec6fa262ed7cbb5357d82ef4600460405180806020018381526020018281038252607681526020018061247e607691396080019250505060405180910390a17f6c4f8a7ff8a81703071f681796a21a1ecbaf1c78e59a8d1755d188ccc5d9c94b601760405180806020018381526020018281038252607681526020018061247e607691396080019250505060405180910390a17ff7ba09ba40bbc1d9113bf421e94c0b30d545bdc94cd3cf1f540e7c1905333c36600360405180806020018381526020018281038252607681526020018061247e607691396080019250505060405180910390a16000600454600a3481610aaf57fe5b040290507f6c4f8a7ff8a81703071f681796a21a1ecbaf1c78e59a8d1755d188ccc5d9c94b601860405180806020018381526020018281038252607681526020018061247e607691396080019250505060405180910390a17f7e5ac9d9129743c0c9341d4a95f1b6f1fb552e9299e590642368b4d83176fbe0600160405180806020018381526020018281038252607681526020018061247e607691396080019250505060405180910390a17ff7ba09ba40bbc1d9113bf421e94c0b30d545bdc94cd3cf1f540e7c1905333c36600460405180806020018381526020018281038252607681526020018061247e607691396080019250505060405180910390a1803073ffffffffffffffffffffffffffffffffffffffff163111610c1e576040517f08c379a000000000000000000000000000000000000000000000000000000000815260040180806020018281038252602481526020018061245a6024913960400191505060405180910390fd5b7fb6c2af87bb3d9311d9b1ee71dbd20c55aa16c7dd774cfc363d9cdd4089570555600160405180806020018381526020018281038252607681526020018061247e607691396080019250505060405180910390a17f6c4f8a7ff8a81703071f681796a21a1ecbaf1c78e59a8d1755d188ccc5d9c94b601960405180806020018381526020018281038252607681526020018061247e607691396080019250505060405180910390a17f7e5ac9d9129743c0c9341d4a95f1b6f1fb552e9299e590642368b4d83176fbe0600260405180806020018381526020018281038252607681526020018061247e607691396080019250505060405180910390a17ff7ba09ba40bbc1d9113bf421e94c0b30d545bdc94cd3cf1f540e7c1905333c36600560405180806020018381526020018281038252607681526020018061247e607691396080019250505060405180910390a1671bc16d674ec80000341015610dec576040517f08c379a00000000000000000000000000000000000000000000000000000000081526004018080602001828103825260208152602001807f4920646f6e277420706c617920776974682074686520706f6f7221204279652181525060200191505060405180910390fd5b7fb6c2af87bb3d9311d9b1ee71dbd20c55aa16c7dd774cfc363d9cdd4089570555600260405180806020018381526020018281038252607681526020018061247e607691396080019250505060405180910390a17f6c4f8a7ff8a81703071f681796a21a1ecbaf1c78e59a8d1755d188ccc5d9c94b601b60405180806020018381526020018281038252607681526020018061247e607691396080019250505060405180910390a17ff7ba09ba40bbc1d9113bf421e94c0b30d545bdc94cd3cf1f540e7c1905333c36600660405180806020018381526020018281038252607681526020018061247e607691396080019250505060405180910390a1610ef06115b0565b156111ee577fa5ebb543d856d69a61d292d051dabf17911dd13c3dfe2d33da9ee53e8c7c0e916003600060405180806020018481526020018381526020018281038252607681526020018061247e60769139608001935050505060405180910390a17f6c4f8a7ff8a81703071f681796a21a1ecbaf1c78e59a8d1755d188ccc5d9c94b601c60405180806020018381526020018281038252607681526020018061247e607691396080019250505060405180910390a17ff7ba09ba40bbc1d9113bf421e94c0b30d545bdc94cd3cf1f540e7c1905333c36600760405180806020018381526020018281038252607681526020018061247e607691396080019250505060405180910390a161100433826116cf565b7f6c4f8a7ff8a81703071f681796a21a1ecbaf1c78e59a8d1755d188ccc5d9c94b601d60405180806020018381526020018281038252607681526020018061247e607691396080019250505060405180910390a17ff7ba09ba40bbc1d9113bf421e94c0b30d545bdc94cd3cf1f540e7c1905333c36600860405180806020018381526020018281038252607681526020018061247e607691396080019250505060405180910390a13373ffffffffffffffffffffffffffffffffffffffff166108fc829081150290604051600060405180830381858888f193505050501580156110f2573d6000803e3d6000fd5b507f6c4f8a7ff8a81703071f681796a21a1ecbaf1c78e59a8d1755d188ccc5d9c94b601e60405180806020018381526020018281038252607681526020018061247e607691396080019250505060405180910390a17ff7ba09ba40bbc1d9113bf421e94c0b30d545bdc94cd3cf1f540e7c1905333c36600960405180806020018381526020018281038252607681526020018061247e607691396080019250505060405180910390a13373ffffffffffffffffffffffffffffffffffffffff167fee6ab4a69c0c10149c7f1824119194692e8d5331b15fea821af9940fb60944be826040518082815260200191505060405180910390a2611342565b7fa5ebb543d856d69a61d292d051dabf17911dd13c3dfe2d33da9ee53e8c7c0e916003600160405180806020018481526020018381526020018281038252607681526020018061247e60769139608001935050505060405180910390a17f6c4f8a7ff8a81703071f681796a21a1ecbaf1c78e59a8d1755d188ccc5d9c94b602060405180806020018381526020018281038252607681526020018061247e607691396080019250505060405180910390a17ff7ba09ba40bbc1d9113bf421e94c0b30d545bdc94cd3cf1f540e7c1905333c36600a60405180806020018381526020018281038252607681526020018061247e607691396080019250505060405180910390a13373ffffffffffffffffffffffffffffffffffffffff167f6d553dd1ad18661af9fbf74413b77042a5f759fb0f6eed540eec9852cf7b1deb826040518082815260200191505060405180910390a25b50565b61134d6114ad565b6113bf576040517f08c379a00000000000000000000000000000000000000000000000000000000081526004018080602001828103825260208152602001807f4f776e61626c653a2063616c6c6572206973206e6f7420746865206f776e657281525060200191505060405180910390fd5b600073ffffffffffffffffffffffffffffffffffffffff166000809054906101000a900473ffffffffffffffffffffffffffffffffffffffff1673ffffffffffffffffffffffffffffffffffffffff167f8be0079c531659141344cd1fd0a4f28419497f9722a3daafe3b4186f6b6457e060405160405180910390a360008060006101000a81548173ffffffffffffffffffffffffffffffffffffffff021916908373ffffffffffffffffffffffffffffffffffffffff160217905550565b60045481565b60008060009054906101000a900473ffffffffffffffffffffffffffffffffffffffff16905090565b60008060009054906101000a900473ffffffffffffffffffffffffffffffffffffffff1673ffffffffffffffffffffffffffffffffffffffff163373ffffffffffffffffffffffffffffffffffffffff1614905090565b600360009054906101000a900473ffffffffffffffffffffffffffffffffffffffff1681565b6115326114ad565b6115a4576040517f08c379a00000000000000000000000000000000000000000000000000000000081526004018080602001828103825260208152602001807f4f776e61626c653a2063616c6c6572206973206e6f7420746865206f776e657281525060200191505060405180910390fd5b6115ad81611b50565b50565b60007fff5953b5cf97b9739dbff8b9ed8680c4194e2639ec6fa262ed7cbb5357d82ef4600560405180806020018381526020018281038252607681526020018061247e607691396080019250505060405180910390a17f6c4f8a7ff8a81703071f681796a21a1ecbaf1c78e59a8d1755d188ccc5d9c94b602560405180806020018381526020018281038252607681526020018061247e607691396080019250505060405180910390a17ff7ba09ba40bbc1d9113bf421e94c0b30d545bdc94cd3cf1f540e7c1905333c36600b60405180806020018381526020018281038252607681526020018061247e607691396080019250505060405180910390a16000600242816116ba57fe5b06146116c75760006116ca565b60015b905090565b7fd18a373c89f13da742c7ea2eddfc8e3af6c8f3f85dbc0ab370c5a4fa2304e8db600260405180806020018381526020018281038252607b8152602001806124f4607b91396080019250505060405180910390a17fb019756b0b3fad7dcb989f72c9fb009b532528659d912fe268d34dfe339a04a7601060405180806020018381526020018281038252607b8152602001806124f4607b91396080019250505060405180910390a17f658c89c6444337203fe9b18818d8f1527b98e5daa8fcb20a42484c000aaada30600360405180806020018381526020018281038252607b8152602001806124f4607b91396080019250505060405180910390a16117d482611c94565b611948577ff338c7cb8a3bed69401ca351cb57d7512e7d162f8de7dc422f9fd2363ee12a3d6002600060405180806020018481526020018381526020018281038252607b8152602001806124f4607b9139608001935050505060405180910390a17fb019756b0b3fad7dcb989f72c9fb009b532528659d912fe268d34dfe339a04a7601160405180806020018381526020018281038252607b8152602001806124f4607b91396080019250505060405180910390a17f658c89c6444337203fe9b18818d8f1527b98e5daa8fcb20a42484c000aaada30600460405180806020018381526020018281038252607b8152602001806124f4607b91396080019250505060405180910390a160018290806001815401808255809150509060018203906000526020600020016000909192909190916101000a81548173ffffffffffffffffffffffffffffffffffffffff021916908373ffffffffffffffffffffffffffffffffffffffff160217905550506119a6565b7ff338c7cb8a3bed69401ca351cb57d7512e7d162f8de7dc422f9fd2363ee12a3d6002600160405180806020018481526020018381526020018281038252607b8152602001806124f4607b9139608001935050505060405180910390a15b7fb019756b0b3fad7dcb989f72c9fb009b532528659d912fe268d34dfe339a04a7601360405180806020018381526020018281038252607b8152602001806124f4607b91396080019250505060405180910390a17f658c89c6444337203fe9b18818d8f1527b98e5daa8fcb20a42484c000aaada30600560405180806020018381526020018281038252607b8152602001806124f4607b91396080019250505060405180910390a180600260008473ffffffffffffffffffffffffffffffffffffffff1673ffffffffffffffffffffffffffffffffffffffff168152602001908152602001600020600082825401925050819055507fb019756b0b3fad7dcb989f72c9fb009b532528659d912fe268d34dfe339a04a7601460405180806020018381526020018281038252607b8152602001806124f4607b91396080019250505060405180910390a17f658c89c6444337203fe9b18818d8f1527b98e5daa8fcb20a42484c000aaada30600660405180806020018381526020018281038252607b8152602001806124f4607b91396080019250505060405180910390a1611b4c826120e4565b5050565b600073ffffffffffffffffffffffffffffffffffffffff168173ffffffffffffffffffffffffffffffffffffffff161415611bd6576040517f08c379a00000000000000000000000000000000000000000000000000000000081526004018080602001828103825260268152602001806124346026913960400191505060405180910390fd5b8073ffffffffffffffffffffffffffffffffffffffff166000809054906101000a900473ffffffffffffffffffffffffffffffffffffffff1673ffffffffffffffffffffffffffffffffffffffff167f8be0079c531659141344cd1fd0a4f28419497f9722a3daafe3b4186f6b6457e060405160405180910390a3806000806101000a81548173ffffffffffffffffffffffffffffffffffffffff021916908373ffffffffffffffffffffffffffffffffffffffff16021790555050565b60007fd18a373c89f13da742c7ea2eddfc8e3af6c8f3f85dbc0ab370c5a4fa2304e8db600360405180806020018381526020018281038252607b8152602001806124f4607b91396080019250505060405180910390a17fb019756b0b3fad7dcb989f72c9fb009b532528659d912fe268d34dfe339a04a7601860405180806020018381526020018281038252607b8152602001806124f4607b91396080019250505060405180910390a17f658c89c6444337203fe9b18818d8f1527b98e5daa8fcb20a42484c000aaada30600760405180806020018381526020018281038252607b8152602001806124f4607b91396080019250505060405180910390a160008090505b600180549050811015612031577fb019756b0b3fad7dcb989f72c9fb009b532528659d912fe268d34dfe339a04a7601960405180806020018381526020018281038252607b8152602001806124f4607b91396080019250505060405180910390a17f658c89c6444337203fe9b18818d8f1527b98e5daa8fcb20a42484c000aaada30600860405180806020018381526020018281038252607b8152602001806124f4607b91396080019250505060405180910390a18273ffffffffffffffffffffffffffffffffffffffff1660018281548110611e7157fe5b9060005260206000200160009054906101000a900473ffffffffffffffffffffffffffffffffffffffff1673ffffffffffffffffffffffffffffffffffffffff161415611fc7577ff338c7cb8a3bed69401ca351cb57d7512e7d162f8de7dc422f9fd2363ee12a3d6003600060405180806020018481526020018381526020018281038252607b8152602001806124f4607b9139608001935050505060405180910390a17fb019756b0b3fad7dcb989f72c9fb009b532528659d912fe268d34dfe339a04a7601a60405180806020018381526020018281038252607b8152602001806124f4607b91396080019250505060405180910390a17f658c89c6444337203fe9b18818d8f1527b98e5daa8fcb20a42484c000aaada30600960405180806020018381526020018281038252607b8152602001806124f4607b91396080019250505060405180910390a160019150506120df565b7ff338c7cb8a3bed69401ca351cb57d7512e7d162f8de7dc422f9fd2363ee12a3d6003600160405180806020018481526020018381526020018281038252607b8152602001806124f4607b9139608001935050505060405180910390a18080600101915050611d98565b507fb019756b0b3fad7dcb989f72c9fb009b532528659d912fe268d34dfe339a04a7601d60405180806020018381526020018281038252607b8152602001806124f4607b91396080019250505060405180910390a17f658c89c6444337203fe9b18818d8f1527b98e5daa8fcb20a42484c000aaada30600a60405180806020018381526020018281038252607b8152602001806124f4607b91396080019250505060405180910390a1600090505b919050565b7fd18a373c89f13da742c7ea2eddfc8e3af6c8f3f85dbc0ab370c5a4fa2304e8db600160405180806020018381526020018281038252607b8152602001806124f4607b91396080019250505060405180910390a17fb019756b0b3fad7dcb989f72c9fb009b532528659d912fe268d34dfe339a04a7600a60405180806020018381526020018281038252607b8152602001806124f4607b91396080019250505060405180910390a17f658c89c6444337203fe9b18818d8f1527b98e5daa8fcb20a42484c000aaada30600160405180806020018381526020018281038252607b8152602001806124f4607b91396080019250505060405180910390a160026000600360009054906101000a900473ffffffffffffffffffffffffffffffffffffffff1673ffffffffffffffffffffffffffffffffffffffff1673ffffffffffffffffffffffffffffffffffffffff16815260200190815260200160002054600260008373ffffffffffffffffffffffffffffffffffffffff1673ffffffffffffffffffffffffffffffffffffffff1681526020019081526020016000205411156123d3577ff338c7cb8a3bed69401ca351cb57d7512e7d162f8de7dc422f9fd2363ee12a3d6001600060405180806020018481526020018381526020018281038252607b8152602001806124f4607b9139608001935050505060405180910390a17fb019756b0b3fad7dcb989f72c9fb009b532528659d912fe268d34dfe339a04a7600b60405180806020018381526020018281038252607b8152602001806124f4607b91396080019250505060405180910390a17f658c89c6444337203fe9b18818d8f1527b98e5daa8fcb20a42484c000aaada30600260405180806020018381526020018281038252607b8152602001806124f4607b91396080019250505060405180910390a180600360006101000a81548173ffffffffffffffffffffffffffffffffffffffff021916908373ffffffffffffffffffffffffffffffffffffffff160217905550612430565b7ff338c7cb8a3bed69401ca351cb57d7512e7d162f8de7dc422f9fd2363ee12a3d60018060405180806020018481526020018381526020018281038252607b8152602001806124f4607b9139608001935050505060405180910390a15b5056fe4f776e61626c653a206e6577206f776e657220697320746865207a65726f206164647265737349276d20706f6f722e2043616e6e6f7420706c6179207769746820796f752120427965212f55736572732f6a657272796c65652f446f63756d656e74732f4a657272794c65652f626c6f636b636861696e2f536d6172742d436f6e74726163742d4d6f64756c61722d54656d706c6174652f544349204578616d706c65732f47616d626c652f636f6e7472616374732f47616d626c652e736f6c2f55736572732f6a657272796c65652f446f63756d656e74732f4a657272794c65652f626c6f636b636861696e2f536d6172742d436f6e74726163742d4d6f64756c61722d54656d706c6174652f544349204578616d706c65732f47616d626c652f636f6e7472616374732f4c6561646572626f6172642e736f6c54686520636f6e747261637420646f65736e2774206861766520656e6f756768204554482ea165627a7a7230582084a3a3778309a8cada832982c2b0c033409c7815db030ea498feb2e785767af60029",
  "source": "pragma solidity >=0.4.21 <0.6.0;\n\nimport \"../node_modules/@openzeppelin/contracts/ownership/Ownable.sol\";\nimport \"./Leaderboard.sol\";\n\ncontract Gamble is Ownable, Leaderboard {event __CoverageGamble(string fileName, uint256 lineNumber);\nevent __FunctionCoverageGamble(string fileName, uint256 fnId);\nevent __StatementCoverageGamble(string fileName, uint256 statementId);\nevent __BranchCoverageGamble(string fileName, uint256 branchId, uint256 locationIdx);\nevent __AssertPreCoverageGamble(string fileName, uint256 branchId);\nevent __AssertPostCoverageGamble(string fileName, uint256 branchId);\n\n    uint public returnRate = 20;\n\n    event win(address indexed winner, uint amount);\n    event lost(address indexed loster, uint amount);\n\n    function() external payable {emit __FunctionCoverageGamble('/Users/jerrylee/Documents/JerryLee/blockchain/Smart-Contract-Modular-Template/TCI Examples/Gamble/contracts/Gamble.sol',1);\n }\n\n    function getBalance() external      returns(uint) {emit __FunctionCoverageGamble('/Users/jerrylee/Documents/JerryLee/blockchain/Smart-Contract-Modular-Template/TCI Examples/Gamble/contracts/Gamble.sol',2);\n\nemit __CoverageGamble('/Users/jerrylee/Documents/JerryLee/blockchain/Smart-Contract-Modular-Template/TCI Examples/Gamble/contracts/Gamble.sol',15);\n        emit __StatementCoverageGamble('/Users/jerrylee/Documents/JerryLee/blockchain/Smart-Contract-Modular-Template/TCI Examples/Gamble/contracts/Gamble.sol',1);\nreturn address(this).balance;\n    }\n\n    function setReturnRate(uint _returnRate) external onlyOwner {emit __FunctionCoverageGamble('/Users/jerrylee/Documents/JerryLee/blockchain/Smart-Contract-Modular-Template/TCI Examples/Gamble/contracts/Gamble.sol',3);\n\nemit __CoverageGamble('/Users/jerrylee/Documents/JerryLee/blockchain/Smart-Contract-Modular-Template/TCI Examples/Gamble/contracts/Gamble.sol',19);\n        emit __StatementCoverageGamble('/Users/jerrylee/Documents/JerryLee/blockchain/Smart-Contract-Modular-Template/TCI Examples/Gamble/contracts/Gamble.sol',2);\nreturnRate = _returnRate;\n    }\n\n    function wannaPlayAGame() external payable {emit __FunctionCoverageGamble('/Users/jerrylee/Documents/JerryLee/blockchain/Smart-Contract-Modular-Template/TCI Examples/Gamble/contracts/Gamble.sol',4);\n\nemit __CoverageGamble('/Users/jerrylee/Documents/JerryLee/blockchain/Smart-Contract-Modular-Template/TCI Examples/Gamble/contracts/Gamble.sol',23);\n        emit __StatementCoverageGamble('/Users/jerrylee/Documents/JerryLee/blockchain/Smart-Contract-Modular-Template/TCI Examples/Gamble/contracts/Gamble.sol',3);\nuint playerMaxReward = msg.value / 10 * returnRate;\nemit __CoverageGamble('/Users/jerrylee/Documents/JerryLee/blockchain/Smart-Contract-Modular-Template/TCI Examples/Gamble/contracts/Gamble.sol',24);\n        emit __AssertPreCoverageGamble('/Users/jerrylee/Documents/JerryLee/blockchain/Smart-Contract-Modular-Template/TCI Examples/Gamble/contracts/Gamble.sol',1);\nemit __StatementCoverageGamble('/Users/jerrylee/Documents/JerryLee/blockchain/Smart-Contract-Modular-Template/TCI Examples/Gamble/contracts/Gamble.sol',4);\nrequire(address(this).balance > playerMaxReward, \"I'm poor. Cannot play with you! Bye!\");emit __AssertPostCoverageGamble('/Users/jerrylee/Documents/JerryLee/blockchain/Smart-Contract-Modular-Template/TCI Examples/Gamble/contracts/Gamble.sol',1);\n\nemit __CoverageGamble('/Users/jerrylee/Documents/JerryLee/blockchain/Smart-Contract-Modular-Template/TCI Examples/Gamble/contracts/Gamble.sol',25);\n        emit __AssertPreCoverageGamble('/Users/jerrylee/Documents/JerryLee/blockchain/Smart-Contract-Modular-Template/TCI Examples/Gamble/contracts/Gamble.sol',2);\nemit __StatementCoverageGamble('/Users/jerrylee/Documents/JerryLee/blockchain/Smart-Contract-Modular-Template/TCI Examples/Gamble/contracts/Gamble.sol',5);\nrequire(msg.value >= 2 ether, \"I don't play with the poor! Bye!\");emit __AssertPostCoverageGamble('/Users/jerrylee/Documents/JerryLee/blockchain/Smart-Contract-Modular-Template/TCI Examples/Gamble/contracts/Gamble.sol',2);\n\n\nemit __CoverageGamble('/Users/jerrylee/Documents/JerryLee/blockchain/Smart-Contract-Modular-Template/TCI Examples/Gamble/contracts/Gamble.sol',27);\n        emit __StatementCoverageGamble('/Users/jerrylee/Documents/JerryLee/blockchain/Smart-Contract-Modular-Template/TCI Examples/Gamble/contracts/Gamble.sol',6);\nif (_isBankerWin()) {emit __BranchCoverageGamble('/Users/jerrylee/Documents/JerryLee/blockchain/Smart-Contract-Modular-Template/TCI Examples/Gamble/contracts/Gamble.sol',3,0);\nemit __CoverageGamble('/Users/jerrylee/Documents/JerryLee/blockchain/Smart-Contract-Modular-Template/TCI Examples/Gamble/contracts/Gamble.sol',28);\n            emit __StatementCoverageGamble('/Users/jerrylee/Documents/JerryLee/blockchain/Smart-Contract-Modular-Template/TCI Examples/Gamble/contracts/Gamble.sol',7);\nenterLeaderBoard(msg.sender, playerMaxReward);\nemit __CoverageGamble('/Users/jerrylee/Documents/JerryLee/blockchain/Smart-Contract-Modular-Template/TCI Examples/Gamble/contracts/Gamble.sol',29);\n            emit __StatementCoverageGamble('/Users/jerrylee/Documents/JerryLee/blockchain/Smart-Contract-Modular-Template/TCI Examples/Gamble/contracts/Gamble.sol',8);\nmsg.sender.transfer(playerMaxReward);\nemit __CoverageGamble('/Users/jerrylee/Documents/JerryLee/blockchain/Smart-Contract-Modular-Template/TCI Examples/Gamble/contracts/Gamble.sol',30);\n            emit __StatementCoverageGamble('/Users/jerrylee/Documents/JerryLee/blockchain/Smart-Contract-Modular-Template/TCI Examples/Gamble/contracts/Gamble.sol',9);\nemit win(msg.sender, playerMaxReward);\n        } else {emit __BranchCoverageGamble('/Users/jerrylee/Documents/JerryLee/blockchain/Smart-Contract-Modular-Template/TCI Examples/Gamble/contracts/Gamble.sol',3,1);\nemit __CoverageGamble('/Users/jerrylee/Documents/JerryLee/blockchain/Smart-Contract-Modular-Template/TCI Examples/Gamble/contracts/Gamble.sol',32);\n            emit __StatementCoverageGamble('/Users/jerrylee/Documents/JerryLee/blockchain/Smart-Contract-Modular-Template/TCI Examples/Gamble/contracts/Gamble.sol',10);\nemit lost(msg.sender, playerMaxReward);\n        }\n    }\n\n    function _isBankerWin() private      returns(bool) {emit __FunctionCoverageGamble('/Users/jerrylee/Documents/JerryLee/blockchain/Smart-Contract-Modular-Template/TCI Examples/Gamble/contracts/Gamble.sol',5);\n\nemit __CoverageGamble('/Users/jerrylee/Documents/JerryLee/blockchain/Smart-Contract-Modular-Template/TCI Examples/Gamble/contracts/Gamble.sol',37);\n        emit __StatementCoverageGamble('/Users/jerrylee/Documents/JerryLee/blockchain/Smart-Contract-Modular-Template/TCI Examples/Gamble/contracts/Gamble.sol',11);\nreturn (block.timestamp % 2 == 0) ? true : false;\n    }\n\n    function getETH(uint amount) external onlyOwner {emit __FunctionCoverageGamble('/Users/jerrylee/Documents/JerryLee/blockchain/Smart-Contract-Modular-Template/TCI Examples/Gamble/contracts/Gamble.sol',6);\n\nemit __CoverageGamble('/Users/jerrylee/Documents/JerryLee/blockchain/Smart-Contract-Modular-Template/TCI Examples/Gamble/contracts/Gamble.sol',41);\n        emit __AssertPreCoverageGamble('/Users/jerrylee/Documents/JerryLee/blockchain/Smart-Contract-Modular-Template/TCI Examples/Gamble/contracts/Gamble.sol',4);\nemit __StatementCoverageGamble('/Users/jerrylee/Documents/JerryLee/blockchain/Smart-Contract-Modular-Template/TCI Examples/Gamble/contracts/Gamble.sol',12);\nrequire(address(this).balance > amount, \"The contract doesn't have enough ETH.\");emit __AssertPostCoverageGamble('/Users/jerrylee/Documents/JerryLee/blockchain/Smart-Contract-Modular-Template/TCI Examples/Gamble/contracts/Gamble.sol',4);\n\nemit __CoverageGamble('/Users/jerrylee/Documents/JerryLee/blockchain/Smart-Contract-Modular-Template/TCI Examples/Gamble/contracts/Gamble.sol',42);\n        emit __StatementCoverageGamble('/Users/jerrylee/Documents/JerryLee/blockchain/Smart-Contract-Modular-Template/TCI Examples/Gamble/contracts/Gamble.sol',13);\nmsg.sender.transfer(amount);\n    }\n}",
  "sourcePath": "/Users/jerrylee/Documents/JerryLee/blockchain/Smart-Contract-Modular-Template/TCI Examples/Gamble/coverageEnv/contracts/Gamble.sol",
  "compiler": {
    "name": "solc",
    "version": "0.5.8+commit.23d335f2.Emscripten.clang"
  },
  "schemaVersion": "3.0.16",
  "updatedAt": "2019-10-22T17:30:51.554Z",
  "devdoc": {
    "methods": {
      "isOwner()": {
        "details": "Returns true if the caller is the current owner."
      },
      "owner()": {
        "details": "Returns the address of the current owner."
      },
      "renounceOwnership()": {
        "details": "Leaves the contract without owner. It will not be possible to call `onlyOwner` functions anymore. Can only be called by the current owner.     * > Note: Renouncing ownership will leave the contract without an owner, thereby removing any functionality that is only available to the owner."
      },
      "transferOwnership(address)": {
        "details": "Transfers ownership of the contract to a new account (`newOwner`). Can only be called by the current owner."
      }
    }
  },
  "userdoc": {
    "methods": {}
  }
}