{
  "contractName": "Magic",
  "abi": [
    {
      "constant": true,
      "inputs": [
        {
          "name": "",
          "type": "address"
        }
      ],
      "name": "audience",
      "outputs": [
        {
          "name": "donation",
          "type": "uint256"
        }
      ],
      "payable": false,
      "stateMutability": "view",
      "type": "function"
    },
    {
      "inputs": [],
      "payable": false,
      "stateMutability": "nonpayable",
      "type": "constructor"
    },
    {
      "constant": false,
      "inputs": [],
      "name": "donate",
      "outputs": [],
      "payable": true,
      "stateMutability": "payable",
      "type": "function"
    },
    {
      "constant": true,
      "inputs": [
        {
          "name": "_audience",
          "type": "address"
        }
      ],
      "name": "getDonation",
      "outputs": [
        {
          "name": "",
          "type": "uint256"
        }
      ],
      "payable": false,
      "stateMutability": "view",
      "type": "function"
    }
  ],
  "bytecode": "0x60806040526201518060015534801561001757600080fd5b50336000806101000a81548173ffffffffffffffffffffffffffffffffffffffff021916908373ffffffffffffffffffffffffffffffffffffffff1602179055506101f5806100676000396000f3fe6080604052600436106100345760003560e01c8063161bee4714610039578063410a1d321461009e578063ed88c68e14610103575b600080fd5b34801561004557600080fd5b506100886004803603602081101561005c57600080fd5b81019080803573ffffffffffffffffffffffffffffffffffffffff16906020019092919050505061010d565b6040518082815260200191505060405180910390f35b3480156100aa57600080fd5b506100ed600480360360208110156100c157600080fd5b81019080803573ffffffffffffffffffffffffffffffffffffffff16906020019092919050505061012b565b6040518082815260200191505060405180910390f35b61010b610177565b005b60026020528060005260406000206000915090508060000154905081565b6000600260008373ffffffffffffffffffffffffffffffffffffffff1673ffffffffffffffffffffffffffffffffffffffff168152602001908152602001600020600001549050919050565b34600260003373ffffffffffffffffffffffffffffffffffffffff1673ffffffffffffffffffffffffffffffffffffffff1681526020019081526020016000206000016000828254019250508190555056fea165627a7a723058203b18b36347051d6258e23424ada0c15f02ac897d4833adbc3a56fa8d827f60330029",
  "source": "pragma solidity >=0.4.24 <0.6.0;\n\ncontract Magic {\n\n\taddress payable magician;\n\tuint cooldownTime = 1 days;\n\n\tstruct Audiences {\n\t\tuint donation;\n\t\tuint32 [4] cooldown;\n\t}\n\n\tmapping (address=>Audiences) public audience;\n\n\tconstructor() public {\n\t\tmagician = msg.sender;\n\t}\n\n\tmodifier checkEnoughDonation(uint _price) {\n\t\trequire(audience[msg.sender].donation >= _price);\n\t\t_;\n\t}\n\n\tfunction donate() public payable {\n      \taudience[msg.sender].donation+=msg.value;\n  \t}\n\n  \tfunction getDonation(address _audience) public view returns(uint){\n  \t\treturn audience[_audience].donation;\n  \t}\n\n  \tfunction _triggerCooldownAndCharging(uint _type) internal {\n  \t\taudience[msg.sender].cooldown[_type] += uint32(now + cooldownTime);\n  \t}\n\n  \tfunction _payMagician(uint _type) internal {\n  \t\tuint charge=_type*100;\n  \t\tmagician.transfer(charge);\n  \t\taudience[msg.sender].donation-=charge;\n  \t}\n}",
  "sourcePath": "/Users/hank/Desktop/Blockchain/TCI/Magic/contracts/Magic.sol",
  "compiler": {
    "name": "solc",
    "version": "0.5.8+commit.23d335f2.Emscripten.clang"
  },
  "schemaVersion": "3.0.16",
  "updatedAt": "2019-10-20T17:06:30.301Z",
  "devdoc": {
    "methods": {}
  },
  "userdoc": {
    "methods": {}
  }
}