{
  "contractName": "MagicAct",
  "abi": [
    {
      "constant": true,
      "inputs": [
        {
          "name": "",
          "type": "address"
        }
      ],
      "name": "audience",
      "outputs": [
        {
          "name": "donation",
          "type": "uint256"
        }
      ],
      "payable": false,
      "stateMutability": "view",
      "type": "function"
    },
    {
      "constant": true,
      "inputs": [
        {
          "name": "_audience",
          "type": "address"
        }
      ],
      "name": "getDonation",
      "outputs": [
        {
          "name": "",
          "type": "uint256"
        }
      ],
      "payable": false,
      "stateMutability": "view",
      "type": "function"
    },
    {
      "constant": false,
      "inputs": [],
      "name": "donate",
      "outputs": [],
      "payable": true,
      "stateMutability": "payable",
      "type": "function"
    },
    {
      "anonymous": false,
      "inputs": [
        {
          "indexed": false,
          "name": "_type",
          "type": "uint256"
        }
      ],
      "name": "Act",
      "type": "event"
    },
    {
      "constant": false,
      "inputs": [
        {
          "name": "_type",
          "type": "uint256"
        }
      ],
      "name": "act",
      "outputs": [],
      "payable": false,
      "stateMutability": "nonpayable",
      "type": "function"
    }
  ],
  "bytecode": "0x608060405262015180600155336000806101000a81548173ffffffffffffffffffffffffffffffffffffffff021916908373ffffffffffffffffffffffffffffffffffffffff1602179055506104ad8061005a6000396000f3fe60806040526004361061003f5760003560e01c8063161bee4714610044578063410a1d32146100a9578063c9ee7e021461010e578063ed88c68e14610149575b600080fd5b34801561005057600080fd5b506100936004803603602081101561006757600080fd5b81019080803573ffffffffffffffffffffffffffffffffffffffff169060200190929190505050610153565b6040518082815260200191505060405180910390f35b3480156100b557600080fd5b506100f8600480360360208110156100cc57600080fd5b81019080803573ffffffffffffffffffffffffffffffffffffffff169060200190929190505050610171565b6040518082815260200191505060405180910390f35b34801561011a57600080fd5b506101476004803603602081101561013157600080fd5b81019080803590602001909291905050506101bd565b005b6101516102d8565b005b60026020528060005260406000206000915090508060000154905081565b6000600260008373ffffffffffffffffffffffffffffffffffffffff1673ffffffffffffffffffffffffffffffffffffffff168152602001908152602001600020600001549050919050565b6064810280600260003373ffffffffffffffffffffffffffffffffffffffff1673ffffffffffffffffffffffffffffffffffffffff16815260200190815260200160002060000154101561021057600080fd5b42600260003373ffffffffffffffffffffffffffffffffffffffff1673ffffffffffffffffffffffffffffffffffffffff168152602001908152602001600020600101836004811061025e57fe5b600891828204019190066004029054906101000a900463ffffffff1663ffffffff16111561028b57600080fd5b6102948261032a565b61029d826103bd565b7fd4c0b421ef6f70d95d5d580b037f717778cad0548663f8ce5231d4797d2cb9ba826040518082815260200191505060405180910390a15050565b34600260003373ffffffffffffffffffffffffffffffffffffffff1673ffffffffffffffffffffffffffffffffffffffff16815260200190815260200160002060000160008282540192505081905550565b6001544201600260003373ffffffffffffffffffffffffffffffffffffffff1673ffffffffffffffffffffffffffffffffffffffff168152602001908152602001600020600101826004811061037c57fe5b600891828204019190066004028282829054906101000a900463ffffffff160192506101000a81548163ffffffff021916908363ffffffff16021790555050565b60006064820290506000809054906101000a900473ffffffffffffffffffffffffffffffffffffffff1673ffffffffffffffffffffffffffffffffffffffff166108fc829081150290604051600060405180830381858888f1935050505015801561042c573d6000803e3d6000fd5b5080600260003373ffffffffffffffffffffffffffffffffffffffff1673ffffffffffffffffffffffffffffffffffffffff16815260200190815260200160002060000160008282540392505081905550505056fea165627a7a7230582045fea06d477a8fadc3f1811d2736724843a305485b77a4a4467ac4621fb59c3d0029",
  "source": "pragma solidity >=0.4.24 <0.6.0;\n\nimport \"./Magic.sol\";\n\ncontract MagicAct is Magic {\n\n\tevent Act(uint _type);\n\n\t// type 0: Card trick, 1:Party show, 2: Stage magic, 3: Illution\n\n\tfunction act(uint _type) public checkEnoughDonation(_type*100) {\n\t\trequire(audience[msg.sender].cooldown[_type] <= now);\n\t\t_triggerCooldownAndCharging(_type);\n\t\t_payMagician(_type);\n\t\temit Act(_type);\n\t}\n}\n",
  "sourcePath": "/Users/hank/Desktop/Blockchain/TCI/Magic/contracts/MagicAct.sol",
  "compiler": {
    "name": "solc",
    "version": "0.5.8+commit.23d335f2.Emscripten.clang"
  },
  "schemaVersion": "3.0.16",
  "updatedAt": "2019-10-20T17:06:30.303Z",
  "devdoc": {
    "methods": {}
  },
  "userdoc": {
    "methods": {}
  }
}