{"contractName":"MagicAct","abi":[{"constant":true,"inputs":[{"name":"","type":"address"}],"name":"audience","outputs":[{"name":"donation","type":"uint256"}],"payable":false,"stateMutability":"view","type":"function"},{"constant":true,"inputs":[{"name":"_audience","type":"address"}],"name":"getDonation","outputs":[{"name":"","type":"uint256"}],"payable":false,"stateMutability":"view","type":"function"},{"constant":true,"inputs":[],"name":"getMagician","outputs":[{"name":"","type":"address"}],"payable":false,"stateMutability":"view","type":"function"},{"constant":true,"inputs":[{"name":"_type","type":"uint256"}],"name":"getCooldownTime","outputs":[{"name":"","type":"uint32"}],"payable":false,"stateMutability":"view","type":"function"},{"constant":true,"inputs":[],"name":"magician","outputs":[{"name":"","type":"address"}],"payable":false,"stateMutability":"view","type":"function"},{"constant":false,"inputs":[],"name":"donate","outputs":[],"payable":true,"stateMutability":"payable","type":"function"},{"anonymous":false,"inputs":[{"indexed":false,"name":"_type","type":"uint256"}],"name":"Act","type":"event"},{"constant":false,"inputs":[{"name":"_type","type":"uint256"}],"name":"act","outputs":[],"payable":false,"stateMutability":"nonpayable","type":"function"},{"constant":false,"inputs":[{"name":"_type","type":"uint256"}],"name":"payMagician","outputs":[],"payable":true,"stateMutability":"payable","type":"function"}],"bytecode":"0x6080604052620151806001557feccefd7633488ea6f9fb578651f6b811e2ec2ca70e3522b55f786cd6b789c432600160405180806020018381526020018281038252603c815260200180611583603c91396040019250505060405180910390a17f70bab33dcb9c1830e48e71155c981ffa38c15e5737d8f983ef2da9e87e7584a1601060405180806020018381526020018281038252603c815260200180611583603c91396040019250505060405180910390a17f80713ddc247da857258361ed4759b6bc0167b9b1d7039486437eaf3dad8bd6e2600160405180806020018381526020018281038252603c815260200180611583603c91396040019250505060405180910390a1336000806101000a81548173ffffffffffffffffffffffffffffffffffffffff021916908373ffffffffffffffffffffffffffffffffffffffff16021790555061142d806101566000396000f3fe60806040526004361061007b5760003560e01c8063904144ba1161004e578063904144ba146101cf578063c9ee7e021461022a578063d617b9a214610265578063ed88c68e146102bc5761007b565b80630753718b14610080578063161bee47146100ae578063410a1d3214610113578063791c4ee014610178575b600080fd5b6100ac6004803603602081101561009657600080fd5b81019080803590602001909291905050506102c6565b005b3480156100ba57600080fd5b506100fd600480360360208110156100d157600080fd5b81019080803573ffffffffffffffffffffffffffffffffffffffff1690602001909291905050506105dd565b6040518082815260200191505060405180910390f35b34801561011f57600080fd5b506101626004803603602081101561013657600080fd5b81019080803573ffffffffffffffffffffffffffffffffffffffff1690602001909291905050506105fb565b6040518082815260200191505060405180910390f35b34801561018457600080fd5b5061018d610743565b604051808273ffffffffffffffffffffffffffffffffffffffff1673ffffffffffffffffffffffffffffffffffffffff16815260200191505060405180910390f35b3480156101db57600080fd5b50610208600480360360208110156101f257600080fd5b8101908080359060200190929190505050610868565b604051808263ffffffff1663ffffffff16815260200191505060405180910390f35b34801561023657600080fd5b506102636004803603602081101561024d57600080fd5b81019080803590602001909291905050506109d6565b005b34801561027157600080fd5b5061027a611084565b604051808273ffffffffffffffffffffffffffffffffffffffff1673ffffffffffffffffffffffffffffffffffffffff16815260200191505060405180910390f35b6102c46110a9565b005b7fcd9485b2f145d462d7e71dae23ed1ecacf77f017a78235eaf5f36a53a2e987d0600260405180806020018381526020018281038252603f815260200180611387603f91396040019250505060405180910390a17fe32b36b600f306047024ea80d33230ae5d2618e27686f381e3de7aaf2f649e5f601260405180806020018381526020018281038252603f815260200180611387603f91396040019250505060405180910390a17fac480591ad53326fe1540d91c4eef19d34b967d29aa3676385a42be038c5d86c600560405180806020018381526020018281038252603f815260200180611387603f91396040019250505060405180910390a1600067016345785d8a0000820290507fe32b36b600f306047024ea80d33230ae5d2618e27686f381e3de7aaf2f649e5f601360405180806020018381526020018281038252603f815260200180611387603f91396040019250505060405180910390a17fac480591ad53326fe1540d91c4eef19d34b967d29aa3676385a42be038c5d86c600660405180806020018381526020018281038252603f815260200180611387603f91396040019250505060405180910390a16000809054906101000a900473ffffffffffffffffffffffffffffffffffffffff1673ffffffffffffffffffffffffffffffffffffffff166108fc829081150290604051600060405180830381858888f193505050501580156104e0573d6000803e3d6000fd5b507fe32b36b600f306047024ea80d33230ae5d2618e27686f381e3de7aaf2f649e5f601460405180806020018381526020018281038252603f815260200180611387603f91396040019250505060405180910390a17fac480591ad53326fe1540d91c4eef19d34b967d29aa3676385a42be038c5d86c600760405180806020018381526020018281038252603f815260200180611387603f91396040019250505060405180910390a180600260003373ffffffffffffffffffffffffffffffffffffffff1673ffffffffffffffffffffffffffffffffffffffff168152602001908152602001600020600001600082825403925050819055505050565b60026020528060005260406000206000915090508060000154905081565b60007feccefd7633488ea6f9fb578651f6b811e2ec2ca70e3522b55f786cd6b789c432600560405180806020018381526020018281038252603c8152602001806113c6603c91396040019250505060405180910390a17f70bab33dcb9c1830e48e71155c981ffa38c15e5737d8f983ef2da9e87e7584a1602160405180806020018381526020018281038252603c8152602001806113c6603c91396040019250505060405180910390a17f80713ddc247da857258361ed4759b6bc0167b9b1d7039486437eaf3dad8bd6e2600560405180806020018381526020018281038252603c8152602001806113c6603c91396040019250505060405180910390a1600260008373ffffffffffffffffffffffffffffffffffffffff1673ffffffffffffffffffffffffffffffffffffffff168152602001908152602001600020600001549050919050565b60007feccefd7633488ea6f9fb578651f6b811e2ec2ca70e3522b55f786cd6b789c432600460405180806020018381526020018281038252603c8152602001806113c6603c91396040019250505060405180910390a17f70bab33dcb9c1830e48e71155c981ffa38c15e5737d8f983ef2da9e87e7584a1601d60405180806020018381526020018281038252603c8152602001806113c6603c91396040019250505060405180910390a17f80713ddc247da857258361ed4759b6bc0167b9b1d7039486437eaf3dad8bd6e2600460405180806020018381526020018281038252603c8152602001806113c6603c91396040019250505060405180910390a16000809054906101000a900473ffffffffffffffffffffffffffffffffffffffff16905090565b60007feccefd7633488ea6f9fb578651f6b811e2ec2ca70e3522b55f786cd6b789c432600660405180806020018381526020018281038252603c8152602001806113c6603c91396040019250505060405180910390a17f70bab33dcb9c1830e48e71155c981ffa38c15e5737d8f983ef2da9e87e7584a1602560405180806020018381526020018281038252603c8152602001806113c6603c91396040019250505060405180910390a17f80713ddc247da857258361ed4759b6bc0167b9b1d7039486437eaf3dad8bd6e2600660405180806020018381526020018281038252603c8152602001806113c6603c91396040019250505060405180910390a1600260003373ffffffffffffffffffffffffffffffffffffffff1673ffffffffffffffffffffffffffffffffffffffff16815260200190815260200160002060010182600481106109b357fe5b600891828204019190066004029054906101000a900463ffffffff169050919050565b606481027feccefd7633488ea6f9fb578651f6b811e2ec2ca70e3522b55f786cd6b789c432600260405180806020018381526020018281038252603c8152602001806113c6603c91396040019250505060405180910390a17f70bab33dcb9c1830e48e71155c981ffa38c15e5737d8f983ef2da9e87e7584a1601460405180806020018381526020018281038252603c8152602001806113c6603c91396040019250505060405180910390a17fd4d9f39e1739b0d94bd2e6fdeeb49dc4a13734bca34a2c2adc649368c69dc89a600160405180806020018381526020018281038252603c8152602001806113c6603c91396040019250505060405180910390a17f80713ddc247da857258361ed4759b6bc0167b9b1d7039486437eaf3dad8bd6e2600260405180806020018381526020018281038252603c8152602001806113c6603c91396040019250505060405180910390a180600260003373ffffffffffffffffffffffffffffffffffffffff1673ffffffffffffffffffffffffffffffffffffffff168152602001908152602001600020600001541015610b7957600080fd5b7ffc42e65a96383624c2e93a8478f28c729ab759681171fc3cf1209e366411534f600160405180806020018381526020018281038252603c8152602001806113c6603c91396040019250505060405180910390a17f70bab33dcb9c1830e48e71155c981ffa38c15e5737d8f983ef2da9e87e7584a1601560405180806020018381526020018281038252603c8152602001806113c6603c91396040019250505060405180910390a17fcd9485b2f145d462d7e71dae23ed1ecacf77f017a78235eaf5f36a53a2e987d0600160405180806020018381526020018281038252603f815260200180611387603f91396040019250505060405180910390a17fe32b36b600f306047024ea80d33230ae5d2618e27686f381e3de7aaf2f649e5f600b60405180806020018381526020018281038252603f815260200180611387603f91396040019250505060405180910390a17f7665f2208c4cde56e3c11c70d517f38cf192411a70347c7bc0c60525ded4f50b600160405180806020018381526020018281038252603f815260200180611387603f91396040019250505060405180910390a17fac480591ad53326fe1540d91c4eef19d34b967d29aa3676385a42be038c5d86c600160405180806020018381526020018281038252603f815260200180611387603f91396040019250505060405180910390a142600260003373ffffffffffffffffffffffffffffffffffffffff1673ffffffffffffffffffffffffffffffffffffffff1681526020019081526020016000206001018360048110610dbf57fe5b600891828204019190066004029054906101000a900463ffffffff1663ffffffff161115610dec57600080fd5b7eff8f02254029bae3c1db3373cbf60ece0b3fdb8070dd425fa3a26dab77845c600160405180806020018381526020018281038252603f815260200180611387603f91396040019250505060405180910390a17fe32b36b600f306047024ea80d33230ae5d2618e27686f381e3de7aaf2f649e5f600c60405180806020018381526020018281038252603f815260200180611387603f91396040019250505060405180910390a17fac480591ad53326fe1540d91c4eef19d34b967d29aa3676385a42be038c5d86c600260405180806020018381526020018281038252603f815260200180611387603f91396040019250505060405180910390a1610ef0826111f7565b7fe32b36b600f306047024ea80d33230ae5d2618e27686f381e3de7aaf2f649e5f600d60405180806020018381526020018281038252603f815260200180611387603f91396040019250505060405180910390a17fac480591ad53326fe1540d91c4eef19d34b967d29aa3676385a42be038c5d86c600360405180806020018381526020018281038252603f815260200180611387603f91396040019250505060405180910390a1610fa1826102c6565b7fe32b36b600f306047024ea80d33230ae5d2618e27686f381e3de7aaf2f649e5f600e60405180806020018381526020018281038252603f815260200180611387603f91396040019250505060405180910390a17fac480591ad53326fe1540d91c4eef19d34b967d29aa3676385a42be038c5d86c600460405180806020018381526020018281038252603f815260200180611387603f91396040019250505060405180910390a17fd4c0b421ef6f70d95d5d580b037f717778cad0548663f8ce5231d4797d2cb9ba826040518082815260200191505060405180910390a15050565b6000809054906101000a900473ffffffffffffffffffffffffffffffffffffffff1681565b7feccefd7633488ea6f9fb578651f6b811e2ec2ca70e3522b55f786cd6b789c432600360405180806020018381526020018281038252603c8152602001806113c6603c91396040019250505060405180910390a17f70bab33dcb9c1830e48e71155c981ffa38c15e5737d8f983ef2da9e87e7584a1601960405180806020018381526020018281038252603c8152602001806113c6603c91396040019250505060405180910390a17f80713ddc247da857258361ed4759b6bc0167b9b1d7039486437eaf3dad8bd6e2600360405180806020018381526020018281038252603c8152602001806113c6603c91396040019250505060405180910390a134600260003373ffffffffffffffffffffffffffffffffffffffff1673ffffffffffffffffffffffffffffffffffffffff16815260200190815260200160002060000160008282540192505081905550565b7feccefd7633488ea6f9fb578651f6b811e2ec2ca70e3522b55f786cd6b789c432600760405180806020018381526020018281038252603c8152602001806113c6603c91396040019250505060405180910390a17f70bab33dcb9c1830e48e71155c981ffa38c15e5737d8f983ef2da9e87e7584a1602960405180806020018381526020018281038252603c8152602001806113c6603c91396040019250505060405180910390a17f80713ddc247da857258361ed4759b6bc0167b9b1d7039486437eaf3dad8bd6e2600760405180806020018381526020018281038252603c8152602001806113c6603c91396040019250505060405180910390a16001544201600260003373ffffffffffffffffffffffffffffffffffffffff1673ffffffffffffffffffffffffffffffffffffffff168152602001908152602001600020600101826004811061134557fe5b600891828204019190066004028282829054906101000a900463ffffffff160192506101000a81548163ffffffff021916908363ffffffff1602179055505056fe2f55736572732f68616e6b2f4465736b746f702f426c6f636b636861696e2f5443492f4d616769632f636f6e7472616374732f4d616769634163742e736f6c2f55736572732f68616e6b2f4465736b746f702f426c6f636b636861696e2f5443492f4d616769632f636f6e7472616374732f4d616769632e736f6ca165627a7a72305820b22d961cb6e8f2409a8b9308165c45dd4e313e1d8d27060a221c945f77db459d00292f55736572732f68616e6b2f4465736b746f702f426c6f636b636861696e2f5443492f4d616769632f636f6e7472616374732f4d616769632e736f6c","source":"pragma solidity >=0.4.24 <0.6.0;\n\nimport \"./Magic.sol\";\n\ncontract MagicAct is Magic {event __CoverageMagicAct(string fileName, uint256 lineNumber);\nevent __FunctionCoverageMagicAct(string fileName, uint256 fnId);\nevent __StatementCoverageMagicAct(string fileName, uint256 statementId);\nevent __BranchCoverageMagicAct(string fileName, uint256 branchId, uint256 locationIdx);\nevent __AssertPreCoverageMagicAct(string fileName, uint256 branchId);\nevent __AssertPostCoverageMagicAct(string fileName, uint256 branchId);\n\n\n\tevent Act(uint _type);\n \n\t// type 1: Card trick, 2:Party show, 3: Stage magic, 4: Illution\n\tfunction act(uint _type) public checkEnoughDonation(_type*100) {emit __FunctionCoverageMagicAct('/Users/hank/Desktop/Blockchain/TCI/Magic/contracts/MagicAct.sol',1);\n\nemit __CoverageMagicAct('/Users/hank/Desktop/Blockchain/TCI/Magic/contracts/MagicAct.sol',11);\n\t\temit __AssertPreCoverageMagicAct('/Users/hank/Desktop/Blockchain/TCI/Magic/contracts/MagicAct.sol',1);\nemit __StatementCoverageMagicAct('/Users/hank/Desktop/Blockchain/TCI/Magic/contracts/MagicAct.sol',1);\nrequire(audience[msg.sender].cooldown[_type] <= now);emit __AssertPostCoverageMagicAct('/Users/hank/Desktop/Blockchain/TCI/Magic/contracts/MagicAct.sol',1);\n\nemit __CoverageMagicAct('/Users/hank/Desktop/Blockchain/TCI/Magic/contracts/MagicAct.sol',12);\n\t\temit __StatementCoverageMagicAct('/Users/hank/Desktop/Blockchain/TCI/Magic/contracts/MagicAct.sol',2);\n_triggerCooldown(_type);\nemit __CoverageMagicAct('/Users/hank/Desktop/Blockchain/TCI/Magic/contracts/MagicAct.sol',13);\n\t\temit __StatementCoverageMagicAct('/Users/hank/Desktop/Blockchain/TCI/Magic/contracts/MagicAct.sol',3);\npayMagician(_type);\nemit __CoverageMagicAct('/Users/hank/Desktop/Blockchain/TCI/Magic/contracts/MagicAct.sol',14);\n\t\temit __StatementCoverageMagicAct('/Users/hank/Desktop/Blockchain/TCI/Magic/contracts/MagicAct.sol',4);\nemit Act(_type);\n\t}\n\n  \tfunction payMagician(uint _type) public payable{emit __FunctionCoverageMagicAct('/Users/hank/Desktop/Blockchain/TCI/Magic/contracts/MagicAct.sol',2);\n\nemit __CoverageMagicAct('/Users/hank/Desktop/Blockchain/TCI/Magic/contracts/MagicAct.sol',18);\n  \t\temit __StatementCoverageMagicAct('/Users/hank/Desktop/Blockchain/TCI/Magic/contracts/MagicAct.sol',5);\nuint charge=_type*100 finney;\nemit __CoverageMagicAct('/Users/hank/Desktop/Blockchain/TCI/Magic/contracts/MagicAct.sol',19);\n  \t\temit __StatementCoverageMagicAct('/Users/hank/Desktop/Blockchain/TCI/Magic/contracts/MagicAct.sol',6);\nmagician.transfer(charge);\nemit __CoverageMagicAct('/Users/hank/Desktop/Blockchain/TCI/Magic/contracts/MagicAct.sol',20);\n  \t\temit __StatementCoverageMagicAct('/Users/hank/Desktop/Blockchain/TCI/Magic/contracts/MagicAct.sol',7);\naudience[msg.sender].donation-=charge;\n  \t}\n}\n","sourcePath":"/Users/hank/Desktop/Blockchain/TCI/Magic/coverageEnv/contracts/MagicAct.sol","compiler":{"name":"solc","version":"0.5.8+commit.23d335f2.Emscripten.clang"},"schemaVersion":"3.0.16","updatedAt":"2019-10-21T20:53:44.911Z","devdoc":{"methods":{}},"userdoc":{"methods":{}}}