{"contractName":"Magic","abi":[{"constant":true,"inputs":[{"name":"","type":"address"}],"name":"audience","outputs":[{"name":"donation","type":"uint256"}],"payable":false,"stateMutability":"view","type":"function"},{"constant":true,"inputs":[],"name":"magician","outputs":[{"name":"","type":"address"}],"payable":false,"stateMutability":"view","type":"function"},{"inputs":[],"payable":true,"stateMutability":"payable","type":"constructor"},{"constant":false,"inputs":[],"name":"donate","outputs":[],"payable":true,"stateMutability":"payable","type":"function"},{"constant":true,"inputs":[],"name":"getMagician","outputs":[{"name":"","type":"address"}],"payable":false,"stateMutability":"view","type":"function"},{"constant":true,"inputs":[{"name":"_audience","type":"address"}],"name":"getDonation","outputs":[{"name":"","type":"uint256"}],"payable":false,"stateMutability":"view","type":"function"},{"constant":true,"inputs":[{"name":"_type","type":"uint256"}],"name":"getCooldownTime","outputs":[{"name":"","type":"uint32"}],"payable":false,"stateMutability":"view","type":"function"}],"bytecode":"0x6080604052620151806001557feccefd7633488ea6f9fb578651f6b811e2ec2ca70e3522b55f786cd6b789c432600160405180806020018381526020018281038252603c815260200180610961603c91396040019250505060405180910390a17f70bab33dcb9c1830e48e71155c981ffa38c15e5737d8f983ef2da9e87e7584a1601060405180806020018381526020018281038252603c815260200180610961603c91396040019250505060405180910390a17f80713ddc247da857258361ed4759b6bc0167b9b1d7039486437eaf3dad8bd6e2600160405180806020018381526020018281038252603c815260200180610961603c91396040019250505060405180910390a1336000806101000a81548173ffffffffffffffffffffffffffffffffffffffff021916908373ffffffffffffffffffffffffffffffffffffffff16021790555061080b806101566000396000f3fe6080604052600436106100555760003560e01c8063161bee471461005a578063410a1d32146100bf578063791c4ee014610124578063904144ba1461017b578063d617b9a2146101d6578063ed88c68e1461022d575b600080fd5b34801561006657600080fd5b506100a96004803603602081101561007d57600080fd5b81019080803573ffffffffffffffffffffffffffffffffffffffff169060200190929190505050610237565b6040518082815260200191505060405180910390f35b3480156100cb57600080fd5b5061010e600480360360208110156100e257600080fd5b81019080803573ffffffffffffffffffffffffffffffffffffffff169060200190929190505050610255565b6040518082815260200191505060405180910390f35b34801561013057600080fd5b5061013961039d565b604051808273ffffffffffffffffffffffffffffffffffffffff1673ffffffffffffffffffffffffffffffffffffffff16815260200191505060405180910390f35b34801561018757600080fd5b506101b46004803603602081101561019e57600080fd5b81019080803590602001909291905050506104c2565b604051808263ffffffff1663ffffffff16815260200191505060405180910390f35b3480156101e257600080fd5b506101eb610630565b604051808273ffffffffffffffffffffffffffffffffffffffff1673ffffffffffffffffffffffffffffffffffffffff16815260200191505060405180910390f35b610235610655565b005b60026020528060005260406000206000915090508060000154905081565b60007feccefd7633488ea6f9fb578651f6b811e2ec2ca70e3522b55f786cd6b789c432600560405180806020018381526020018281038252603c8152602001806107a4603c91396040019250505060405180910390a17f70bab33dcb9c1830e48e71155c981ffa38c15e5737d8f983ef2da9e87e7584a1602160405180806020018381526020018281038252603c8152602001806107a4603c91396040019250505060405180910390a17f80713ddc247da857258361ed4759b6bc0167b9b1d7039486437eaf3dad8bd6e2600560405180806020018381526020018281038252603c8152602001806107a4603c91396040019250505060405180910390a1600260008373ffffffffffffffffffffffffffffffffffffffff1673ffffffffffffffffffffffffffffffffffffffff168152602001908152602001600020600001549050919050565b60007feccefd7633488ea6f9fb578651f6b811e2ec2ca70e3522b55f786cd6b789c432600460405180806020018381526020018281038252603c8152602001806107a4603c91396040019250505060405180910390a17f70bab33dcb9c1830e48e71155c981ffa38c15e5737d8f983ef2da9e87e7584a1601d60405180806020018381526020018281038252603c8152602001806107a4603c91396040019250505060405180910390a17f80713ddc247da857258361ed4759b6bc0167b9b1d7039486437eaf3dad8bd6e2600460405180806020018381526020018281038252603c8152602001806107a4603c91396040019250505060405180910390a16000809054906101000a900473ffffffffffffffffffffffffffffffffffffffff16905090565b60007feccefd7633488ea6f9fb578651f6b811e2ec2ca70e3522b55f786cd6b789c432600660405180806020018381526020018281038252603c8152602001806107a4603c91396040019250505060405180910390a17f70bab33dcb9c1830e48e71155c981ffa38c15e5737d8f983ef2da9e87e7584a1602560405180806020018381526020018281038252603c8152602001806107a4603c91396040019250505060405180910390a17f80713ddc247da857258361ed4759b6bc0167b9b1d7039486437eaf3dad8bd6e2600660405180806020018381526020018281038252603c8152602001806107a4603c91396040019250505060405180910390a1600260003373ffffffffffffffffffffffffffffffffffffffff1673ffffffffffffffffffffffffffffffffffffffff168152602001908152602001600020600101826004811061060d57fe5b600891828204019190066004029054906101000a900463ffffffff169050919050565b6000809054906101000a900473ffffffffffffffffffffffffffffffffffffffff1681565b7feccefd7633488ea6f9fb578651f6b811e2ec2ca70e3522b55f786cd6b789c432600360405180806020018381526020018281038252603c8152602001806107a4603c91396040019250505060405180910390a17f70bab33dcb9c1830e48e71155c981ffa38c15e5737d8f983ef2da9e87e7584a1601960405180806020018381526020018281038252603c8152602001806107a4603c91396040019250505060405180910390a17f80713ddc247da857258361ed4759b6bc0167b9b1d7039486437eaf3dad8bd6e2600360405180806020018381526020018281038252603c8152602001806107a4603c91396040019250505060405180910390a134600260003373ffffffffffffffffffffffffffffffffffffffff1673ffffffffffffffffffffffffffffffffffffffff1681526020019081526020016000206000016000828254019250508190555056fe2f55736572732f68616e6b2f4465736b746f702f426c6f636b636861696e2f5443492f4d616769632f636f6e7472616374732f4d616769632e736f6ca165627a7a72305820d9467dcaf2806a3403f0c1a5297f56b165dc16591371fd8d0107f6fcd71c0b4600292f55736572732f68616e6b2f4465736b746f702f426c6f636b636861696e2f5443492f4d616769632f636f6e7472616374732f4d616769632e736f6c","source":"pragma solidity >=0.4.24 <0.6.0;\n\ncontract Magic {event __CoverageMagic(string fileName, uint256 lineNumber);\nevent __FunctionCoverageMagic(string fileName, uint256 fnId);\nevent __StatementCoverageMagic(string fileName, uint256 statementId);\nevent __BranchCoverageMagic(string fileName, uint256 branchId, uint256 locationIdx);\nevent __AssertPreCoverageMagic(string fileName, uint256 branchId);\nevent __AssertPostCoverageMagic(string fileName, uint256 branchId);\n\n\n\taddress payable public magician;\n\tuint cooldownTime = 1 days;\n\n\tstruct Audiences {\n\t\tuint donation;\n\t\tuint32 [4] cooldown;\n\t}\n\n\tmapping (address=>Audiences) public audience;\n\n\tconstructor() payable public {emit __FunctionCoverageMagic('/Users/hank/Desktop/Blockchain/TCI/Magic/contracts/Magic.sol',1);\n\nemit __CoverageMagic('/Users/hank/Desktop/Blockchain/TCI/Magic/contracts/Magic.sol',16);\n\t\temit __StatementCoverageMagic('/Users/hank/Desktop/Blockchain/TCI/Magic/contracts/Magic.sol',1);\nmagician = msg.sender;\n\t}\n\n\tmodifier checkEnoughDonation(uint _price) {emit __FunctionCoverageMagic('/Users/hank/Desktop/Blockchain/TCI/Magic/contracts/Magic.sol',2);\n\nemit __CoverageMagic('/Users/hank/Desktop/Blockchain/TCI/Magic/contracts/Magic.sol',20);\n\t\temit __AssertPreCoverageMagic('/Users/hank/Desktop/Blockchain/TCI/Magic/contracts/Magic.sol',1);\nemit __StatementCoverageMagic('/Users/hank/Desktop/Blockchain/TCI/Magic/contracts/Magic.sol',2);\nrequire(audience[msg.sender].donation >= _price);emit __AssertPostCoverageMagic('/Users/hank/Desktop/Blockchain/TCI/Magic/contracts/Magic.sol',1);\n\nemit __CoverageMagic('/Users/hank/Desktop/Blockchain/TCI/Magic/contracts/Magic.sol',21);\n\t\t_;\n\t}\n\n\tfunction donate() payable public {emit __FunctionCoverageMagic('/Users/hank/Desktop/Blockchain/TCI/Magic/contracts/Magic.sol',3);\n\nemit __CoverageMagic('/Users/hank/Desktop/Blockchain/TCI/Magic/contracts/Magic.sol',25);\n      \temit __StatementCoverageMagic('/Users/hank/Desktop/Blockchain/TCI/Magic/contracts/Magic.sol',3);\naudience[msg.sender].donation+=msg.value;\n  \t}\n\n  \tfunction getMagician() public      returns(address) {emit __FunctionCoverageMagic('/Users/hank/Desktop/Blockchain/TCI/Magic/contracts/Magic.sol',4);\n\nemit __CoverageMagic('/Users/hank/Desktop/Blockchain/TCI/Magic/contracts/Magic.sol',29);\n\t\temit __StatementCoverageMagic('/Users/hank/Desktop/Blockchain/TCI/Magic/contracts/Magic.sol',4);\nreturn magician;\n\t}\n\n  \tfunction getDonation(address _audience) public      returns(uint){emit __FunctionCoverageMagic('/Users/hank/Desktop/Blockchain/TCI/Magic/contracts/Magic.sol',5);\n\nemit __CoverageMagic('/Users/hank/Desktop/Blockchain/TCI/Magic/contracts/Magic.sol',33);\n  \t\temit __StatementCoverageMagic('/Users/hank/Desktop/Blockchain/TCI/Magic/contracts/Magic.sol',5);\nreturn audience[_audience].donation;\n  \t}\n\n  \tfunction getCooldownTime(uint _type) public      returns(uint32){emit __FunctionCoverageMagic('/Users/hank/Desktop/Blockchain/TCI/Magic/contracts/Magic.sol',6);\n\nemit __CoverageMagic('/Users/hank/Desktop/Blockchain/TCI/Magic/contracts/Magic.sol',37);\n\t\temit __StatementCoverageMagic('/Users/hank/Desktop/Blockchain/TCI/Magic/contracts/Magic.sol',6);\nreturn audience[msg.sender].cooldown[_type];\n\t}\n\n  \tfunction _triggerCooldown(uint _type) internal {emit __FunctionCoverageMagic('/Users/hank/Desktop/Blockchain/TCI/Magic/contracts/Magic.sol',7);\n\nemit __CoverageMagic('/Users/hank/Desktop/Blockchain/TCI/Magic/contracts/Magic.sol',41);\n  \t\temit __StatementCoverageMagic('/Users/hank/Desktop/Blockchain/TCI/Magic/contracts/Magic.sol',7);\naudience[msg.sender].cooldown[_type] += uint32(now + cooldownTime);\n  \t}\n}","sourcePath":"/Users/hank/Desktop/Blockchain/TCI/Magic/coverageEnv/contracts/Magic.sol","compiler":{"name":"solc","version":"0.5.8+commit.23d335f2.Emscripten.clang"},"schemaVersion":"3.0.16","updatedAt":"2019-10-21T20:53:44.905Z","devdoc":{"methods":{}},"userdoc":{"methods":{}}}